:020000040800F2
:10000000C8060020350200083D0200083F02000833
:1000100041020008430200084502000800000000F9
:10002000000000000000000000000000470200087F
:1000300049020008000000004B020008C506000845
:100040004F0200084F0200084F0200084F0200084C
:100050004F0200084F0200084F0200084F0200083C
:100060004F0200084F0200084F0200084F0200082C
:100070004F0200084F0200084F0200084F0200081C
:100080004F0200084F0200084F0200080000000065
:100090000000000000000000000000004F02000807
:1000A0004F0200084F0200084F0200084F020008EC
:1000B0004F0200084F0200084F0200084F020008DC
:1000C0004F0200084F0200084F0200084F020008CC
:1000D0004F0200084F0200084F0200080000000015
:1000E0004F0200084F0200084F0200080000000005
:1000F0000000000000000000000000004F020008A7
:10010000000000004F0200084F0200084F020008E4
:1001100000000000000000000000000000000000DF
:100120004F0200084F0200084F0200084F0200086B
:100130004F02000800000000000000000000000066
:100140000000000000000000000000004F02000856
:100150004F0200084F0200084F0200084F0200083B
:100160004F0200084F0200080000000000000000DD
:10017000000000000000000000000000000000007F
:10018000000000004F020008000000000000000016
:100190004F02000800F002F800F03CF80AA090E8D6
:1001A000000C82448344AAF10107DA4501D100F032
:1001B00031F8AFF2090EBAE80F0013F0010F18BFC3
:1001C000FB1A43F001031847F80600001807000067
:1001D000103A24BF78C878C1FAD8520724BF30C873
:1001E00030C144BF04680C60704700000023002445
:1001F00000250026103A28BF78C1FBD8520728BF37
:1002000030C148BF0B6070471FB500F04FFB1FBDEA
:1002100010B510BD00F058F81146FFF7F5FF00F0DB
:1002200021FB00F076F803B4FFF7F2FF03BC00F007
:100230007BF800000948804709480047FEE7FEE7D1
:10024000FEE7FEE7FEE7FEE7FEE7FEE7FEE7FEE786
:1002500004480549054A064B70470000C9060008D6
:1002600095010008C8000020C8060020C802002030
:10027000C80200204FF0000200B51346944696468F
:10028000203922BFA0E80C50A0E80C50B1F12001A9
:10029000BFF4F7AF090728BFA0E80C5048BF0CC057
:1002A0005DF804EB890028BF40F8042B08BF7047B5
:1002B00048BF20F8022B11F0804F18BF00F8012B27
:1002C0007047704770477047754600F029F8AE4692
:1002D00005006946534620F00700854618B020B552
:1002E000FFF7B6FFBDE820404FF000064FF00007D3
:1002F0004FF000084FF0000B21F00701AC46ACE8CE
:10030000C009ACE8C009ACE8C009ACE8C0098D463A
:1003100070470446AFF300802046FFF784FF0000DB
:10032000004870476800002001491820ABBEFEE776
:1003300026000200704700002DE9F84F0022DFF888
:100340007C914FF0010803274FF00F0C09F1040ACC
:10035000A9F1040B08FA02F50B682B40AB4272D1ED
:100360000C7904F00304012C01D0022C15D186680D
:10037000540007FA04FE26EA0E06D1F80CE00EFA45
:1003800004FE4EEA060EC0F808E04468AC430D795E
:10039000C5F300159540254345600C79E443A40757
:1003A00008D0C568540007FA04F6B5438E68A64025
:1003B0002E43C6600C7904F00304022C11D1D4083A
:1003C00000EB8406356A5407E40E0CFA04FE25EAB5
:1003D0000E05D1F810E00EFA04FE4EEA050EC6F83E
:1003E00020E00568540007FA04F6B5430E7906F0DC
:1003F0000306A6402E4306604C6814F4403F56D0D6
:100400002F4C256845F480452560246804F4804419
:1004100000942C4C22F003052E19356894074FEAFE
:10042000147E0CFA0EF4A543274CA04201D10024FF
:1004300015E0264CA04201D1012410E0244CA0423A
:1004400002D102240BE032E0224CA04201D103246D
:1004500005E0214CA04201D1042400E0072404FA65
:100460000EF42C433460D9F800409C434D68ED02F3
:1004700000D51C43C9F80040DAF800409C434D68A1
:10048000AD0200D51C43CAF80040DBF800409C4395
:100490004D68AD0300D51C43CBF80040074D083D27
:1004A0002C689C434E68F60300D51C432C60521CFC
:1004B000102AFFF44FAFBDE8F88F0000083C014060
:1004C0004438024008380140000002400004024065
:1004D00000080240000C024000100240426921EA7C
:1004E00002030A4043EA024181617047002A01D0B9
:1004F000816170470904816170470000024881688A
:1005000002781144816070470400002010B509484A
:10051000016841F400710160016841F4806101608B
:10052000032000F04DF80F2000F006F800F026F848
:10053000002010BD003C024070B504460D4D4FF444
:100540007A712878B1FBF0F00B490968B1FBF0F043
:1005500000F048F808B1012070BD102C07D200222D
:100560002146501E00F00CF86C60002070BD012088
:1005700070BD000004000020100000207047000043
:10058000F0B40D460D4B1B68C3F30223C3F10704FF
:10059000042C00D90424191D072901D2002300E0EE
:1005A000DB1E012606FA04F1491E294099409E40AF
:1005B000761E16403143F0BC00F03CB90CED00E073
:1005C00000F00701054A10684FF6FF03184040EAA3
:1005D0000120034908431060704700000CED00E063
:1005E0000000FA0510B5401EB0F1807F01D3012054
:1005F00010BD4FF0E02460610F21601700F01AF980
:100600000020A06107202061002010BD10B5044625
:10061000002C03D094F83D0010B107E0012010BD7C
:10062000002084F83C00204600F015F8022084F8F1
:100630003D00211D206800F04FF801203D3460721C
:100640006070A070E07020716071A071E071207224
:100650002070002010BD704790F83D10012901D096
:1006600001207047022180F83D100068104988423F
:100670000ED0B0F1804F0BD00E49884208D00E4901
:10068000884205D00D49884202D00D49884209D1DF
:10069000816801F00701062908D0016841F00101D5
:1006A000016003E0016841F0010101600020704732
:1006B000000001400004004000080040000C004021
:1006C00000400140FFF71ABF0248016841F4700181
:1006D0000160704788ED00E0F0B502681D4C1E4DCA
:1006E0001E4E1F4F4FF0804CA04207D0604505D0F2
:1006F000A84203D0B04201D0B84203D122F0700327
:100700004A681A43A04210D060450ED0A8420CD0CF
:10071000B0420AD0B84208D0124B984205D0124BD2
:10072000984202D0114B984203D122F44073CA6818
:100730001A434B6922F080021A4302608A68C2623F
:100740000A688262A04201D1096901630121416105
:10075000F0BD00000000014000040040000800401F
:10076000000C0040004001400044014000480140AE
:1007700010B50446A068406AB4F85010401AB0F5AD
:100780007A7F07D3A1882068FFF7A8FEA068406A97
:10079000A4F8500010BD000070B586B004460D46A8
:1007A00000262248016841F400310160006800F42D
:1007B0000030009028682060A888A080142101A83B
:1007C000FFF758FD19481438016841F00201016033
:1007D000006800F002000090A98800222868FFF756
:1007E00085FEA8880190012002900396049601A935
:1007F0002868FFF7A1FD0E48A06040F21F30E060BE
:1008000026614FF6FF706061A661266204F1080060
:100810000546FFF7FBFE2846FFF71EFFA068406A6B
:10082000A4F8500006B0204670BD000044380240D5
:10083000004401400907090E002802DB034A8154E5
:100840007047034A00F00F008154704700E400E055
:1008500014ED00E0016809B100207047012101603A
:10086000084670471CB50E4803C8CDE90001FFF7E4
:100870004DFE0C480078C0070AD10A48FFF7EAFF8E
:1008800030B169460848FFF787FF0648AFF300809C
:100890000548FFF76DFF0448FFF76AFFFBE700001C
:1008A000B808000800000020140000204FF040703D
:1008B000E1EE100A70470000000402400100000051
:1008C000E00800080000002014000000D00100082B
:1008D000F408000814000020B4060000EC01000831
:1008E00000000000010000001000000000000000F7
:0408F0000024F400EC
:0400000508000235B8
:00000001FF
